:400000000040002011000000050600000506000010B500F045FD01F009F900F0FBFA000070B572B680224B4B12031A604A4A4B4B4B4C1A60EE224B4B12021A60BB224A4B75
:4000400012011A60494A4A4B1A607022494B1A60494A4A4B1A606022494B1A60494B9F321A60494A494B1A60AA22494B1A60494A494B1A60494A4A4B1A604A4A4A4B1A603F
:4000800004224A4B1A604A4A4A4B1A6036224A4B1A601223236000F0F1FC182000F03CFC0222FA20454BC0001A60454B19321A60444B013A1A6000F095FCC5B2002D00D076
:4000C000FEE7414800F084FC404B414A1D60414B41491A60414A0D201160414A41491A602222414B1A604123404A1360404A1360404A1360404A1360404A136000F050FB6D
:400100000D2000F06FFB1F2280203D4BC0051A603C4B1A3A1A6000F0CBFC08233A4A136011681942FCD10122374B1A60112380222360364B12061A600322354B1A60354A98
:40014000354B1A60354A364B1A602022354B1A6070BDC0460001024008080808000202403000104000030240000602407602000008000440000104404962000008010440E7
:400180001801044000020440866118000802044018020440899D2400080304400090D80008040440B68DD90008050440000604408E110300080604400807044008002F402B
:4001C00000FF2F4004FF2F40DC0500000003014040FF00800000014000BF5D000403014041FF00803D0B000028000340300101402C010140280101401C0101401801014021
:40020000080222400C02224010022240000030403000304008400000800030400240000088003040000E3F4010B5064C2378002B07D1054B002B02D0044800E000BF01234E
:40024000237010BD5001002000000000741B0000084B10B5002B03D00749084800E000BF07480368002B00D110BD064B002BFBD09847F9E70000000054010020741B00003C
:40028000B80000200000000010B562B6012000F033FF012000F024FF0A2000F0C5FA012000F036FF01F046FA002010BD10B500F0BBFB040000F0C0FBFA23201A9B0058432E
:4002C000014901F089FB10BD00366E0110B5094C2378002B0CD10A2000F07AFB022000F00FFA0A2000F074FB00F020FE0123237010BDC0466C01002010B5002400F06EFC75
:40030000054B0A201C7000F063FB200000F0F8F90A2000F05DFB10BD6C01002030B503AC24880D0A4170C270110A43711A0A230A0570817002718371C47130BDF0B589B075
:400340001500070000910193FFF7B0FF002304AC23716371E37102AB06002A00009918000497A571E36001F0EFFB200000F02CFE002809D0FFF79AFF019B801B984203D2FB
:40038000012000F051FAF0E709B0F0BDF0B51E000A248DB00F0015000390FFF787FF66430290FFF793FF012000F0B2FE2B88B2B2264904A80097FFF7B1FF254B0822186836
:4003C00004A980B22300FFF7B9FF0120002F3BD00024204A08AB12681C71089206AA5C71DC710B92BC4208D3FFF760FF029BC01AB04280414042000126E0FFF757FF029BDF
:40040000C01A8642F0D93D1B082D00D9082502AB9D77039B2A00191906A801F095FB6419A4B208A800F0D0FD002803D1012000F0FBF9D7E7FFF73AFF029BC01A8642F5D999
:40044000012000F0F1F9ECE70DB0F0BDFFFF0000BC000020C4000020F0B51D000A248FB0170005910600FFF721FF654309900895FFF72CFF002000F04BFE6A4600250599C3
:400480003B88128C0CA800910021FFF747FF584B082218680CA9230080B2FFF74FFF059B3D80093C072B00D89EE01A002900300001F053FB039506950794FFF7F7FE099B65
:4004C000C01A089B834200D88DE04A4C2368079A134200D17EE0802223685203134202D163685B0D01E06368DB08434A1268934204D02368079A134323606BE0256808220C
:400500002D032D0FEBB200210CA8049301F025FBA3680A93E3680B930023DAB29446049A94450DD261460A9A032900D90B9A032160468143C900CA400CA95A540133ECE705
:400540002368079A134323603B885D19059B9D4201DC002305E00122236813432360062442E0049DD8B23A880CA9854204D9C95CF01881540133F4E7204B521918683A809F
:4005800080B22A000A23FFF7D9FE3A88032A0AD9069B002B07D1F378B1781B021943CD1DABB206910393039B934213D133780624012B19D1039BF518013D2B78172B13D1FA
:4005C0007378342B02D00024392B0DD1FFF794FE002409E00A4B20349C4200D076E7642000F0F6F969E7102420000FB0F0BDC046BC000020A0002E40C8000020C000002005
:40060000A0022E4010B501F073FA03680C2B00D1FEE7FEE7F8B500250F49104B01394A1C14D000221F685C689E68A018B24203D0B858A0500432F8E70200DE68141AA642DC
:4006400001D020C2FAE710330139E8E701F056FAFFF71AFEFEE7C046010000000C1D0000002370B50B480C4C0C4D9A002100032B00D8A958013381502C2BF6D1FFF7D0FC43
:40068000074B1A68002A00D11A608022054B92051A6070BD000000200506000000000000B000002008ED00E00B480C4A0C4B10B51B68116804680B4A9B00224002601C22D2
:4006C00013400A07920F1833D340074A9B181B78064ADBB2136010BD0000224028000340080F0340FFFFFFBF4DF3FF0F0C0F0340024B18684000C00F7047C0460000224059
:40070000F8B5040001F055F8042322001B499A43022A29D1032201250B68194E93430B603368A208AB4313433360164B1B68002B03DA154B1B682B4216D08025134B2D0640
:400740001A6802272A431A6005221E68013A3E431E601E68D2B2BE430C4D1E60002AF4D12B685B005B082B6003230A689A43234013430B6001F021F8F8BDC046280003408A
:4007800000002F4008002F400C002F4020002F400120024B1B6898437047C0460C002F40024B8000C31818681960704740000020F8B5032605003540B5400F0004000635FA
:4007C000AE40AF4000F0F5FFA408054BA400E4182368B3431F43276000F0EFFFF8BDC04600E400E01F2318401E3B8340014A13607047C04600E100E01F2318401E3B83402D
:40080000014A13607047C04680E100E001BE7047034A044913689BB20B4313607047C0460CED00E00400FA0570B5802504002D02064BAC4205D9586800F0B2FF044BE41804
:40084000F6E79868604300F0ABFF70BDCC0000200080FFFFF0B585B000F01CF9002846D000F0A7FF0024234A234B01901B681068224A234D14602968224A9B001140A0228E
:40088000520311431C2213400207920F1833D3401D4A1E4E53438022D2019B18DB0B013B0B432B6033683020039301F05FF88021174AC90513680B4313602A68154B1A4049
:4008C000170001201034FFF7AFFFA3053B432B60F02CF6D10120FFF7A7FFFF23084A9B053B431360039B0198336000F066FF05B0F0BDC04628000340080F03400C0F0340D8
:400900000800224000F800C040420F003000104000002240FFFF3FC0F7B50500183D0400182D45D80126234B3700EB409F433FD100F03FFF0190FFF7DBFE0097002802D0B1
:40094000FFF7B2FE009607271B4E1C4A33681C49BB4333601B4BE3181B78DBB213601A4A1368BB431360194B0A68E31818787F239A43034013430B60322000F011FF182CEF
:400980000ED033681C3CA408BB433C401C433460322000F005FF3368AD08BB431D433560009B012B01D1FFF755FF019800F005FFF7BDC04611111101080F03400C0F0340AE
:4009C000180F03404DF3FF0F100F034034F3FF0F10B5034B1B7B584300F0E2FE10BDC046CC000020802270B50E4D12062B68040013432B600A20FFF7EBFF01222B6813430D
:400A00002B60002C01D100200AE00120FFF7E0FFFFF7BEFE0028F6D1013C002CF5D1103070BDC04608002F40024B18680002000A7047C04614E000E0024B18680002000A30
:400A40007047C04618E000E001200A4A136883431360022311689943116007492E330A689A43203B1A430A6007220B68934303430B60704700002240000F224010B5FFF743
:400A8000E3FF8021024A090613680B43136010BD00002240014B1868C00F704700002240014A024B1A6070476588EDAC3800034070B5154D04002B68144E9B0F9B079842C9
:400AC00015D0032233687C20934333602B689B0F00D09030FFF77CFF00F06BFE2B68A40F9B009B08A4071C432C6000F066FE03223368934319002B689A0F534253410133FF
:400B00000B43336070BDC0460C0222401402224010B5040000F04DFE0549064A0B681440054A134023430B600B6800F046FE10BD1002224004040400FBFBFBFF042270B5AE
:400B4000224C2368134213D021490B6813420CD0204B5D6908681540A84308605969914359619B68002B00D098470420FFF7D0FF80232268DB001A4215D015490A681A4262
:400B80000DD0144A556908682B40984308605169114B0B405361D368002B00D098478020C000FFF7B5FF80232268DB021A420CD0074A12681A4204D0064B1B69002B00D0DD
:400BC00098478020C002FFF7A3FF70BD10022240E000002070010020FFFBFFFF01220A4B10B5196891431960F02109011C68144004D001390029F9D1012003E01A20FFF7BF
:400C0000FBFD200010BDC04610002E400120034B1A6802431A601B689843704704002E400C4A0D4B10B51A60FFF7F0FF1A20FFF7D9FD0122094B196811431960902149007D
:400C40001868104204D101390029F9D1012000E0002010BD0112000000002E4010002E40F0B50600023802240D2833D8881E052803D9002B2ED101292CD10224032A29D814
:400C8000964227D3914225D3134DEE3428682F68000A20403043F026104C00023C4004432C602C68360160400124304212D1581E8341A340490192002E680A43ED34134316
:400CC000DBB2A6431E432E6028680440E31A5C1EA341DCB22000F0BD14002E40FFF0FFFF084B10211A68002805D18A431A601868C006C00F05E001200A431A601B681B09C2
:400D00009843704714002E40044B18601B689BB2181A431E9841C0B27047C04604002E4010B503781E4A5B019B1841681D4A0A431A6003781A4A5B019B1819681A4A4468EE
:400D400011401A4A2240914201D0012027E082681A610378124A5B019B181A6981688A42F3D1C2685A6103780D4A5B019B185A69C1688A42E9D1012252429A610378084A92
:400D80005B019B189A690132DFD10022DA610378034A5B019B18D869431E9841C0B210BDA0002E40800080007F007F007FFF7FFF030010B5027810491201521840680F4930
:400DC000014311601A780C491201521814680C4958680C400B49014001208C420BD1996851601A780449120152189B685068181A431E9841C0B210BD20002E400800800013
:400E0000F7007F00F7FF7FFF70B500260B4DA819FFF7CEFF002801D001200EE00C36602EF4D10400A036280060300019FFF778FF0028F1D11034B442F5D170BD781B000042
:400E40008022314B120670B51A6001222F4B196891431960F021090118682C4D0126104203D001390029F7D14CE01A20FFF7C4FC274C28491A20FFF793FC03211A20FFF794
:400E800097FC2268244B134080225202134323602168224B0B40934234D12268204B134023602368DB042DD422681E4B13402360802322689B01134024D1032206201100FD
:400EC000FFF7CEFE00281DD13000FFF709FF002818D12368B34323602368334212D1FFF793FF00280ED11048FFF70EFF002809D12B68073083432B602B681840431E9841C8
:400F0000C0B200E0012070BD00042E4010002E4014002E40A90F0000FFFF00800000FF7FFFEFFFFFFFDFFFFF0112000010B5074B1A781C00002A04D001232370FFF770FE32
:400F400003E0FFF77DFF0028F6D010BD88010020802210B5024B92001A60FFF73FFE10BD00002E40802270B50024012520260B4B52011A600A4BE0B21B682B4207D0094B0E
:400F8000E3185B011B68334201D000F09BF86D000134ADB2102CEDD170BDC04600002E4008002E4005700102064B10B51A681C00930501D5FFF7CCFF2368DB0401D5FFF7EB
:400FC000D1FF10BD00002E400323F7B5060000930127384D384B01201A683B041A4259D134797179621E944133686205002901D15B0503E0802149030A43DB006B60B479AA
:40100000072C01D8240401E080242403F3791443002B01D004231C43290000220C310191B379D0B2834221D9082A1FD0D30003280ED901995B420868FF2138339940884328
:40104000F168895C99400B00019903430B600BE0FF215B4218339940A8688843F168895C99400B000343AB600132D9E71A20FFF7C3FB124B1C432C60337A002B02D02B6883
:40108000032201E001222B6813431A202B60FFF7A9FB00207F00FFB200280AD0084B10359D4297D1009B013BDBB20093002B8FD10120FEBD20002E4008002E4008008000A4
:4010C000A0002E400122054B4001C0180368134202D00368134303607047C046A0002E40012304490A689A43D2B2034013430B607047C046000604402023044940010A6843
:401100009A43D2B2034013430B607047000604402023044940010A689A43D2B2034013430B60704700050440004700000A00F0B50C4B8C1A075D08241D0001267D405B08BA
:40114000354202D0084D6B409BB2013CE4B27F08002CF1D1013A92B2002AEAD1D84340BA80B2F0BDFFFF00000884FFFF00234118002A05D0013A881800781B18DBB2F7E745
:4011800018007047013810B50B2830D80902494200F00EFC06080A0C0E10141216191B20164B13E0164B16E0164B0AE0164B12E0164B0BE0164B09E0164B02E0164B00E062
:4011C000164BC91814E0164B05E0164BC9180878C0B211E0144BC9180A7848788C780002230418430300C8781343000603E000210B7848780002184310BDC046C0FF01006E
:40120000C1FF0100C5FF0100C9FF0100D0FF0100D1FF0100D6FF0100D2FF0100D4FF0100D8FF0100DCFF0100E0FF01000C4B10B51A68102313400B4A00D113601368802BCB
:401240000DD10024022021001460FFF79BFFA04205D021000220FFF795FFFFF765FF10BD54000340B0000020F8B5010006000320FFF788FF040031000420FFF783FF0134B9
:4012800024022718002431000320FFF77BFF250001300002B84209D203785A1ED2B2FD2A00D80125E418E4B20130F3E731000120FFF768FF6442E4B20623844203D16A4221
:4012C00055416D422B401800F8BD0000F0B5BE4CA5440190FEF7FAFF62B6019B002B02D06B461B7901E0B94B1B78DBB2039300250A23009502939621039B04AA49000AA84F
:40130000FFF7AAF8019B002B03D0029B013BDBB20293029B002B02D00028ECD101E0002857D104AB1988062960D91A7E0423012A28D104AA568BF21D8A4259D8962149009A
:401340008A4255D80AAA92199279172A1AD10020F11889B2814202D00AA8FFF7E7FE0AAFBB195A791B7912021A430823824209D140E0009B012B39D1012E37D10C23002CA7
:4013800000D183E000240121002004AA54800AAA1170211D537089B2230A9470D370814202D01000FFF7C2FEA0AB894A1B199A181070884A000A9A181070874A07349B1880
:4013C00017221A7004AAA1B2962302320AA8FEF7DDFF019B002B8ED0009B012B00D09CE10123009387E7009B012B5ED00423C9E70323C7E77B783C791800313814282ED94F
:40140000764A1468002C26D0009A012A25D104AAD68007AE13710BAF0C2200213000069700F09BFBB760310005A8A0472623B488FF339C4202D9B368BB4207D0B268002A7B
:4014400001D1002C04D13368DBB29CE70E2399E70E23140097E7052395E7052392E700F0B1FAC2FF5A00CFFF7A00AE00CFFFC700DB007A00EC00FF0088FFCFFFCFFFCFFFC3
:40148000CFFFCFFFCFFFCFFFCFFF2F002000FFF7EBFE0C23002800D075E7382250490BA800F052FB230038346DE7002E9ED13000FFF7DAFE43424341009C3B71330062E747
:4014C000009B012B92D1474B3340032B8ED104AA04AB977F5B7F3F021F43032E06D01F2104ABF21EC91855A800F02EFB002C00D0C3E03D4B9F4200D9C1E03F027A1C55ABEA
:40150000FF32DB1B3978D85D884200D0B9E001379742F7D17DE0009B012B00D066E7012E00D063E7002C00D060E7304B1B681B685A0CD2B2002A02D1DB03DB0D01E0802313
:401540009B003B711B0A7B71FF23BB71FE3BFB710424002317E7342B0FD1009B012B00D044E7032E00D041E7802280255200002155A800F0F2FA6D0006E0009B012B00D030
:4015800034E7022E00D831E71F2155AB581904ABC918F21E00F0D8FA04237519FF33ADB29D4270D104AB9D7F587F0F4B2D0205439D426ED9FF3BFF3B00930933E2E6009B38
:4015C000012B00D012E7A2E07CFDFFFFD81C0000ACFDFFFFADFDFFFFAEFDFFFF8C010020C0FF0100FFFEFFFFFF010000E4000020009B012B00D0F9E62C337719FF339F422D
:4016000000DDF5E655AB581932000BA900F09CFABDB200231C00B6E6002E00D0E6E607AB1900404A350011CA11C10BAA03CB03C20123082400933300A5E6009B012B00D04A
:40164000D4E6032E00D0D1E604AA04AB977F5B7F3F021F43344B9F4239D9F63BFF3B91E60020FFF701FE002802D180222F4B1A60FEF742FEFFF7CCF8B8E6092382E60A23C0
:4016800081E602237EE601230025009302332C0079E6274B64021B682D191A68A8B2130AD2B29BB2002A01D001339BB2834204D90123002500930933E9E755A900F0E4F863
:4016C0000028F5D10123050000930300DFE780226102C919090252000020FFF747FD0600002C0ED1104B9F420BD121000520FFF749FD2100361A0620FFF744FDF6B2361A68
:40170000F6B20AAB76421E71012400233BE60025019BAB4200D063E6EDE5A1239B009D44F0BDC046DC1C0000FF010000B0000020E400002070B50020FFF796FD431E98413C
:401740000625144C4042236805401A68C021C03A0020FFF70BFD63681B78181AC0B2834203D123681B68002B02D10020FFF74EF8094C2368402B01D0002D03D00020206052
:40178000FFF7A4FD0A20FFF7A1FD80232360FFF73FF870BDE4000020B0000020000000000230800803D001300238FCD1C046C0467047EFF3108072B6704780F310887047E5
:4017C00082B06A460B4B0C4900930C4B01930C4B1A600C4A1160C0461A68120F0F2A04D01A680020120F0A2A01D01868C0B202B07047C046B6E90000160000809001002081
:401800000800104004001040094B0A4A0A491A600A4A1160C0461A68120F0F2A04D01A680020120F0A2A01D01868C0B27047C04608001040B6E800001500008004001040B6
:4018400082B06A460B4B0C4900930C4B01930C4B1A600C4A1160C0461A68120F0F2A04D01A680020120F0A2A01D01868C0B202B07047C046B6EA00001700008090010020FE
:401880000800104004001040F0B50024304BC7B0029406000394984255D8A14253D0802206A8520000F050F92A4B2B4D0493FF232A492B4A04AF7B602F600A60C0462A68F9
:4018C0000191120F0F2A03D02A68120F0A2A01D02C681C400294029B002B36D1FFF769FF0400FFF76DFF0390039B002B02D1FFF78BFF0290029B002B16D11A4A1A4904920B
:40190000049A0198360416430496134A2F600160C0462968090F0F2903D01168090F0A2901D01368DBB20293039B002B07D1FFF787FF0390039B002B01D0039B029320006D
:40194000FFF73BFF01E004230293029847B0F0BDFF010000B6D70000080010400400104004000080B6D800000500008010B50400FFF71FFF102C04D803210C4A13688B43D4
:401980000FE0202C05D80321084A13688B43023906E0302C06D80321044A13688B4301390B431360FFF709FF10BDC0463000104002B4714649084900095C49008E4402BCA9
:4019C0007047C04603B47146490840004900095E49008E4403BC7047002243088B4274D303098B425FD3030A8B4244D3030B8B4228D3030C8B420DD3FF22090212BA030CD4
:401A00008B4202D31212090265D0030B8B4219D300E0090AC30B8B4201D3CB03C01A5241830B8B4201D38B03C01A5241430B8B4201D34B03C01A5241030B8B4201D30B03AB
:401A4000C01A5241C30A8B4201D3CB02C01A5241830A8B4201D38B02C01A5241430A8B4201D34B02C01A5241030A8B4201D30B02C01A5241CDD2C3098B4201D3CB01C01AA7
:401A8000524183098B4201D38B01C01A524143098B4201D34B01C01A524103098B4201D30B01C01A5241C3088B4201D3CB00C01A524183088B4201D38B00C01A524143088E
:401AC0008B4201D34B00C01A5241411A00D20146524110467047FFE701B5002000F006F802BDC0460029F7D076E770477047C046014B18687047C0464C0100200E4B70B5D5
:401B000000251E000D4CE41AA410A54204D0AB00F35898470135F8E700F0E6F8084B00251E00084CE41AA410A54204D0AB00F35898470135F8E770BDF41C0000F41C000056
:401B4000F41C0000FC1C0000002310B59A4203D0CC5CC4540133F9E710BD03008218934202D019700133FAE770470000001E0000D500000000000000000000000800880069
:401B80000000000001000000080088000000000002000000080088000000000003000000080088000000000004000000080088000000000005000000080088000000000046
:401BC0000600000008008800000000000700000008008800000000000000000088008000FFFFFFFF000000000100000088008000FFFFFFFF000000000200000088008000A5
:401C0000FFFFFFFF000000000300000088008000FFFFFFFF000000000400000088008000FFFFFFFF000000000500000088008000FFFFFFFF00000000060000008800800082
:401C4000FFFFFFFF000000000700000088008000FFFFFFFF000000000800000088008000FFFFFFFF000000000900000088008000FFFFFFFF000000000A0000008800800032
:401C8000FFFFFFFF000000000B00000088008000FFFFFFFF000000000C00000088008000FFFFFFFF000000000D00000088008000FFFFFFFF000000000E00000088008000E2
:401CC000FFFFFFFF000000000F00000088008000FFFFFFFF00000000FF000000B5110125003C010143000000F8B5C046F8BC08BC9E4670475102000061060000F8B5C04636
:401D0000F8BC08BC9E46704729020000201D0000B80000209800000058000000000000000000000004010000030100000201000001010000010000000000E02EC05D000026
:401D40001800000000366E01040404006C1B0000701B00000000000000000000000000000000000000000000000000000000000000000000E41C0000000000000000000088
:401D800000000000000000000000000000000000000000000000000000000000000000000000000000000000000000000000000000000000EC000020000000000000000017
:401DC00000000000000000000000000000000000000000000000000000000000000000000000000000000000000000000000000000000000000000000000000000000000E3
:401E000000000000000000000000000000000000000000000000000000000000000000000000000000000000000000000000000000000000000000000000000000000000A2
:401E40000000000000000000000000000000000000000000000000000000000000000000000000000000000000000000000000000000000000000000000000000000000062
:401E80000000000000000000000000000000000000000000000000000000000000000000000000000000000000000000000000000000000000000000000000000000000022
:020000040001F9
:40FFC00000000000000000000000000000000000000001000101000000000000000000000000000000000000000000000000000000000000000000000000000000000000FE
:0200000490303A
:02000000BE59E7
:0200000490402A
:40000000FFFFFFFFFFFF00000000000000000000000000000000000000000000000000000000000000000000000000000000000000000000000000000000000000000000C6
:0200000490501A
:0C0000000002250111B50001250AD00EF8
:0200000490600A
:0100000001FE
:00000001FF